:1000000029C043C042C041C040C03FC03EC03DC007
:100010007EC03BC03AC039C038C037C036C035C0DA
:1000200034C0DFC32BC2E5C111C296C321C3DDC2F8
:10003000F7C164C34CC3BEC393C24DC275C302C3F0
:100040002FC333C2E8C29FC1BAC29DC373C2A0C24C
:100050005AC2B8C111241FBECFE5D1E0DEBFCDBF6B
:1000600010E0A0E6B0E0E6EAFCE002C005900D92E8
:10007000AC37B107D9F710E0ACE7B0E001C01D9292
:10008000A238B107E1F7F8D30CC6BACFCF92DF920E
:10009000EF92FF92CF93DF9360917D0070917E008D
:1000A0006F5F7F4F70937E0060937D00C091600012
:1000B000D091610080E090E024D524E63AE74AE55B
:1000C00052E4B7D46B017C01BE0180E090E019D509
:1000D0009B01AC01C701B601A2D518164CF4809162
:1000E0007C008F5F80937C0010927E0010927D00D8
:1000F000DF91CF91FF90EF90DF90CF900895811125
:1001000003C0D898DF980895D89ADF9A08951F926F
:100110000F920FB60F9211242F933F934F935F933B
:100120006F937F938F939F93AF93BF93EF93FF93BF
:10013000E0917F00F0918000309709F00995FF91E0
:10014000EF91BF91AF919F918F917F916F915F914F
:100150004F913F912F910F900FBE0F901F901895C8
:10016000F8941FBC1EBC9EB58770892B8EBD12BC37
:1001700081E08CB91DBC1CBC7093800060937F0033
:100180007894089517B897B18F73892B87B913B8EE
:1001900080EC86B93699FECF84B195B1089589EF88
:1001A0008ABB84E087BBC19A0895882311F120E0BF
:1001B00040E0B1994F5FEDEFF6E03197F1F700C005
:1001C00000002F5F2813F5CF822F6AE012D4841726
:1001D00080F450E030E0281B310981E042175307DA
:1001E0002CF490918100992341F00895809381002F
:1001F00008951092810080E0089580E008956623BC
:1002000079F150E028E030E0281B310980E090E0EF
:10021000A1E0B0E00DC0FD01022E01C0EE0F0A9476
:10022000EAF77E2B7BBB0196215031098617C0F47B
:10023000FA01082E02C0F595E7950A94E2F77BB320
:10024000E0FDE9CFFD01022E01C0EE0F0A94EAF7AE
:10025000E095E723EBBB019621503109861740F367
:100260000895CF93DF93CDB7DEB727970FB6F894F5
:10027000DEBF0FBECDBF1C821B824E835F835C81BD
:10028000742F282F30E040E08F8190E027960FB642
:10029000F894DEBF0FBECDBFDF91CF9108950F93CD
:1002A0001F93CF93DF93FC019B01A481B0E0628197
:1002B0007381CD018DD3280F391FBD016F5F7F4F33
:1002C000C901A3D38B0173836283608170E0858150
:1002D00096819BD3EB01C80198D3DB019E01369533
:1002E0002795201B310BCB019927BE0171D3280F15
:1002F000391F37FD14C0D695C795D695C7952C17CD
:100300003D0738F4A1838A2FDF91CF911F910F9180
:1003100008958181DF91CF911F910F9108953195BB
:1003200021953109E8CFCF93DF93EB019FEB980F35
:100330009A3108F041C090E2980F892F91569A3176
:10034000C0F5992787FD9095A92FB92FFC01E2569A
:10035000F109E931F10590F181E0FE010995F9E239
:100360002FE982E0F15020408040E1F700C000C05A
:1003700080E0FE010995F4E52EE385E0F150204090
:100380008040E1F781E0FE010995FEE72DED87E071
:10039000F15020408040E1F7000080E0FE01099527
:1003A000F9E22FE982E0F15020408040E1F700C0FF
:1003B00000C0DF91CF910895982FC0CFEF5EFF4F1F
:1003C00081E00994FE010995FEE72DED87E0F150EB
:1003D00020408040E1F7000080E0FE010995F9E24D
:1003E0002FE982E0F15020408040E1F700C000C0DA
:1003F00081E0FE010995FEE72DED87E0F1502040F8
:100400008040E1F7000080E0FE010995F9E22FE964
:1004100082E0F15020408040E1F700C000C081E060
:10042000FE010995F9E22FE982E0F1502040804079
:10043000E1F700C000C080E0FE010995F4E52EE37D
:1004400085E0F15020408040E1F781E0FE01099510
:10045000F9E22FE982E0F15020408040E1F700C04E
:1004600000C080E0FE010995F4E52EE385E0F1503F
:1004700020408040E1F7DF91CF910895FE0109957A
:10048000FEE72DED87E0F15020408040E1F70000CD
:1004900080E0FE010995F9E22FE982E0F150204069
:1004A0008040E1F700C000C081E0FE010995F9E25B
:1004B0002FE982E0F15020408040E1F700C000C009
:1004C00080E0FE010995F4E52EE385E0F15020403F
:1004D0008040E1F781E0FE010995FEE72DED87E020
:1004E000F15020408040E1F7000080E0FE010995D6
:1004F000F9E22FE982E0F15020408040E1F700C0AE
:1005000000C081E0A3CFFE010995FEE72DED87E055
:10051000F15020408040E1F7000080E0FE010995A5
:10052000F9E22FE982E0F15020408040E1F700C07D
:1005300000C081E0FE010995F9E22FE982E0F15067
:1005400020408040E1F700C000C080E0FE01099536
:10055000F4E52EE385E0F15020408040E1F781E0B2
:10056000FE010995FEE72DED87E0F1502040804027
:10057000E1F7000080E0FE010995F9E22FE982E051
:10058000F15020408040E1F700C000C081E0FBCE88
:10059000FE010995FEE72DED87E0F15020408040F7
:1005A000E1F7000080E0FE010995F9E22FE982E021
:1005B000F15020408040E1F700C000C081E0FE0122
:1005C0000995F9E22FE982E0F15020408040E1F7FF
:1005D00000C000C080E0FE010995F4E52EE385E04F
:1005E000F15020408040E1F7B7CEFE010995F9E2D5
:1005F0002FE982E0F15020408040E1F700C000C0C8
:1006000080E0FE010995F4E52EE385E0F1502040FD
:100610008040E1F781E0FE010995F9E22FE982E0EF
:10062000F15020408040E1F700C000C080E0FE01B2
:100630000995F4E52EE385E0F15020408040E1F794
:1006400081E0EECEFE010995F9E22FE982E0F1505A
:1006500020408040E1F700C000C080E0FE01099525
:10066000F4E52EE385E0F15020408040E1F781E0A1
:10067000FE010995FEE72DED87E0F1502040804016
:10068000E1F7000080E0FE010995F9E22FE982E040
:10069000F15020408040E1F700C000C081E01BCF56
:1006A000FE010995FEE72DED87E0F15020408040E6
:1006B000E1F7000080E0FE010995F9E22FE982E010
:1006C000F15020408040E1F700C000C081E0FE0111
:1006D0000995FEE72DED87E0F15020408040E1F7DD
:1006E000000080E0FE010995F9E22FE982E0F15077
:1006F00020408040E1F700C000C02ECEFE010995E9
:10070000F9E22FE982E0F15020408040E1F700C09B
:1007100000C080E0FE010995F4E52EE385E0F1508C
:1007200020408040E1F781E0FE010995FEE72DEDD4
:1007300087E0F15020408040E1F7000080E0FE01BA
:100740000995F9E22FE982E0F15020408040E1F77D
:1007500000C000C081E004CFFE010995F9E22FE955
:1007600082E0F15020408040E1F700C000C080E00E
:10077000FE010995F4E52EE385E0F150204080402C
:10078000E1F781E092CEFE010995F9E22FE982E0DE
:10079000F15020408040E1F700C000C080E0FE0141
:1007A0000995F4E52EE385E0F15020408040E1F723
:1007B00081E005CFFE010995F9E22FE982E0F150D1
:1007C00020408040E1F700C000C080E0FE010995B4
:1007D000F4E52EE385E0F15020408040E1F781E030
:1007E00008CEFE010995FEE72DED87E0F15020408F
:1007F0008040E1F7000080E0FE010995F9E22FE971
:1008000082E0F15020408040E1F700C000C081E06C
:1008100002CF81E0B7DC9C01220F331F220F331F70
:10082000280F391FC9016FE270E0EFD0CB01969518
:10083000982F882797958795860F971F409162007C
:10084000509163009A01220F331F240F351F820F2E
:10085000931F9695879596958795909363008093BF
:100860006200089583E880BF82E083BF19BE12BE94
:1008700016BE089586BF0895CF93DF93CDB7DEB738
:10088000A7970FB6F894DEBF0FBECDBF88DC10B8B7
:1008900084B78C7009F49AC0DB9AE4DF66E470E0F8
:1008A00081E090E05DDC80E1E4E6F0E0DE011196BD
:1008B00001900D928A95E1F788E0E4E7F0E0DE012F
:1008C000519601900D928A95E1F740E054E06AE07C
:1008D00088E0C7DC28A339A34AA35BA36CA37DA34C
:1008E0008EA340E054E06AE088E0BBDC298F3A8FB9
:1008F0004B8F5C8F6D8F7E8F8F8F80E090E0B7D1B4
:10090000E1E1F0E0EC0FFD1FE80FF11D108181E047
:1009100090E0ADD1FE013196E80FF11DE80FF11D19
:1009200020813181309361002093600090917C00A0
:1009300091112AC082E339DC882399F182E022DC1C
:10094000BC01CE014996ABDC482FFE013196E80F81
:10095000F11DE80FF11D208131813093610020935A
:100960006000682F81E090E04FA389D14FA163E040
:1009700082E045DC4EDF8430994228F58FE77ADF4C
:1009800090917C009923B1F26FE770E0812FCBDC6E
:1009900090917C00915090937C0082E306DC811161
:1009A000CDCF82E0EFDBBC01CE01809678DC482F12
:1009B000E1E1F0E0EC0FFD1FE80FF11D1081682F61
:1009C00080E090E0D1CF80E055DFB0CFDB9865CFFD
:1009D0000024552704C0080E591F880F991F00973F
:1009E00029F076956795B8F37105B9F7802D952FA5
:1009F0000895991B79E004C0991F961708F0961B7B
:100A0000881F7A95C9F780950895AA1BBB1B51E1F1
:100A100007C0AA1FBB1FA617B70710F0A61BB70B6E
:100A2000881F991F5A95A9F780959095BC01CD0113
:100A300008950CD0BAC0B2D040F0A9D030F021F463
:100A40005F3F19F09BC05111E4C09EC0BFD098F326
:100A50009923C9F35523B1F3951B550BBB27AA273F
:100A600062177307840738F09F5F5F4F220F331FB1
:100A7000441FAA1FA9F333D00E2E3AF0E0E830D07D
:100A800091505040E695001CCAF729D0FE2F27D080
:100A9000660F771F881FBB1F261737074807AB074E
:100AA000B0E809F0BB0B802DBF01FF2793585F4FC3
:100AB0002AF09E3F510568F061C0ABC05F3FECF388
:100AC000983EDCF3869577956795B795F7959F5F88
:100AD000C9F7880F911D9695879597F90895E1E0DC
:100AE000660F771F881FBB1F621773078407BA073B
:100AF00020F0621B730B840BBA0BEE1F88F7E09596
:100B00000895E89409C097FB3EF490958095709500
:100B100061957F4F8F4F9F4F9923A9F0F92F96E949
:100B2000BB279395F695879577956795B795F111BE
:100B3000F8CFFAF4BB0F11F460FF1BC06F5F7F4F5B
:100B40008F4F9F4F16C0882311F096E911C077236D
:100B500021F09EE8872F762F05C0662371F096E876
:100B6000862F70E060E02AF09A95660F771F881F45
:100B7000DAF7880F9695879597F9089597F99F6703
:100B800080E870E060E008959FEF80EC0895002415
:100B90000A941616170618060906089500240A94E2
:100BA00012161306140605060895092E0394000C68
:100BB00011F4882352F0BB0F40F4BF2B11F460FFF7
:100BC00004C06F5F7F4F8F4F9F4F089557FD905820
:100BD000440F551F59F05F3F71F04795880F97FB01
:100BE000991F61F09F3F79F08795089512161306BB
:100BF0001406551FF2CF4695F1DF08C016161706EA
:100C00001806991FF1CF869571056105089408951E
:100C1000E894BB2766277727CB0197F9089503D07F
:100C200008F48FEF0895990F0008550FAA0BE0E81C
:100C3000FEEF16161706E807F907C0F0121613069E
:100C4000E407F50798F0621B730B840B950B39F4DE
:100C50000A2661F0232B242B252B21F408950A2644
:100C600009F4A140A6958FEF811D811D0895E1999A
:100C7000FECF1FBA8EBBE09A99278DB30895262F19
:100C8000E199FECF1FBA8EBBE09A81500DB20216D9
:100C900039F01CBA2DBB0FB6F894E29AE19A0FBE58
:060CA0000895F894FFCF57
:100CA6003C0038310A0014001E002D003C0078007C
:0C0CB600F00058024145494F55544D4E86
:00000001FF
